:020000040800F2
:1000000000500020350C0008850C0008850C000805
:10001000850C0008850C0008850C00080000000015
:10002000000000000000000000000000850C000837
:10003000850C000800000000850C0008B10B0008CA
:10004000850C0008850C0008850C0008850C00084C
:10005000850C0008850C0008850C0008850C00083C
:10006000850C0008850C0008850C0008850C00082C
:10007000850C0008850C0008850C0008850C00081C
:10008000850C0008850C0008850C0008850C00080C
:10009000850C0008850C0008850C0008850C0008FC
:1000A000850C0008850C0008850C0008850C0008EC
:1000B000850C0008850C0008850C0008850C0008DC
:1000C000850C0008850C0008850C0008850C0008CC
:1000D000850C0008850C0008850C0008850C0008BC
:1000E000850C0008850C000800000000850C000845
:1000F000850C0008850C0008850C0008850C00089C
:10010000850C0008850C0008850C0008850C00088B
:10011000850C0008850C0008850C0008850C00087B
:10012000850C0008850C0008850C0008850C00086B
:1001300010B5054C237833B9044B13B10448AFF321
:1001400000800123237010BD00000020000000008B
:10015000D00C000808B5034B1BB103490348AFF3AB
:10016000008008BD0000000004000020D00C000842
:1001700080F0004002E000BF81F0004142001FBF5C
:100180005FEA410392EA030F7FEA226C7FEA236C65
:100190006AD04FEA1262D2EB1363C1BFD21841405A
:1001A00048404140B8BF5B42192B88BF704710F0F0
:1001B000004F40F4000020F07F4018BF404211F093
:1001C000004F41F4000121F07F4118BF494292EAFB
:1001D000030F3FD0A2F1010241FA03FC10EB0C0027
:1001E000C3F1200301FA03F100F0004302D54942B4
:1001F00060EB4000B0F5000F13D3B0F1807F06D361
:1002000040084FEA310102F10102FE2A51D2B1F158
:10021000004F40EBC25008BF20F0010040EA03004D
:100220007047490040EB0000013A28BFB0F5000FCD
:10023000EDD2B0FA80FCACF1080CB2EB0C0200FA83
:100240000CF0AABF00EBC25052421843BCBFD040D2
:100250001843704792F0000F81F4000106BF80F44C
:1002600000000132013BB5E74FEA41037FEA226C0F
:1002700018BF7FEA236C21D092EA030F04D092F0DA
:10028000000F08BF0846704790EA010F1CBF00200E
:10029000704712F07F4F04D1400028BF40F000406B
:1002A000704712F100723CBF00F50000704700F08B
:1002B000004343F0FE4040F4000070477FEA2262B2
:1002C00016BF08467FEA23630146420206BF5FEA83
:1002D000412390EA010F40F4800070474FF0000383
:1002E00004E000BF10F0004348BF40425FEA000C4A
:1002F00008BF704743F0964301464FF000001CE0F2
:1003000050EA010208BF70474FF000030AE000BF47
:1003100050EA010208BF704711F0004302D5404285
:1003200061EB41015FEA010C02BF844601460020F7
:1003300043F0B64308BFA3F18053A3F50003BCFA12
:100340008CF2083AA3EBC25310DB01FA02FC6344BF
:1003500000FA02FCC2F12002BCF1004F20FA02F2C6
:1003600043EB020008BF20F00100704702F12002B9
:1003700001FA02FCC2F1200250EA4C0021FA02F21A
:1003800043EB020008BF20EADC7070474FF0FF0C1F
:100390001CEAD0521EBF1CEAD15392EA0C0F93EA1A
:1003A0000C0F6FD01A4480EA010C400218BF5FEABC
:1003B00041211ED04FF0006343EA501043EA51112F
:1003C000A0FB01310CF00040B1F5000F3EBF490029
:1003D00041EAD3715B0040EA010062F17F02FD2A2D
:1003E0001DD8B3F1004F40EBC25008BF20F0010010
:1003F000704790F0000F0CF0004C08BF49024CEA27
:10040000502040EA51207F3AC2BFD2F1FF0340EAB8
:10041000C250704740F400004FF00003013A5DDC29
:1004200012F1190FDCBF00F000407047C2F100026A
:10043000410021FA02F1C2F1200200FA02FC5FEA57
:10044000310040F1000053EA4C0308BF20EADC70A1
:10045000704792F0000F00F0004C02BF400010F413
:10046000000F013AF9D040EA0C0093F0000F01F0C0
:10047000004C02BF490011F4000F013BF9D041EAE2
:100480000C018FE70CEAD15392EA0C0F18BF93EAE4
:100490000C0F0AD030F0004C18BF31F0004CD8D10E
:1004A00080EA010000F00040704790F0000F17BF95
:1004B00090F0004F084691F0000F91F0004F14D0DB
:1004C00092EA0C0F01D142020FD193EA0C0F03D133
:1004D0004B0218BF084608D180EA010000F0004036
:1004E00040F0FE4040F40000704740F0FE4040F411
:1004F000400070474FF0FF0C1CEAD0521EBF1CEAB0
:10050000D15392EA0C0F93EA0C0F69D0A2EB0302CD
:1005100080EA010C49024FEA402037D04FF0805367
:1005200043EA111143EA10130CF000408B4238BF2C
:100530005B0042F17D024FF4000C8B4224BF5B1A3A
:1005400040EA0C00B3EB510F24BFA3EB510340EA88
:100550005C00B3EB910F24BFA3EB910340EA9C0036
:10056000B3EBD10F24BFA3EBD10340EADC001B01A6
:1005700018BF5FEA1C1CE0D1FD2A3FF650AF8B424A
:1005800040EBC25008BF20F0010070470CF0004C57
:100590004CEA50207F32C2BFD2F1FF0340EAC25082
:1005A000704740F400004FF00003013A37E792F043
:1005B000000F00F0004C02BF400010F4000F013AA1
:1005C000F9D040EA0C0093F0000F01F0004C02BF9C
:1005D000490011F4000F013BF9D041EA0C0195E705
:1005E0000CEAD15392EA0C0F08D142027FF47DAF9E
:1005F00093EA0C0F7FF470AF084676E793EA0C0F8E
:1006000004D14B023FF44CAF08466EE730F0004C8B
:1006100018BF31F0004CCAD130F000427FF45CAF1B
:1006200031F000437FF43CAF5FE700BF42000ED2E1
:10063000B2F1FE4F0BD34FF09E03B3EB126209D41D
:100640004FEA002343F0004323FA02F070474FF0D3
:100650000000704712F1610F01D1420202D14FF048
:10066000FF3070474FF00000704700BF90B482B079
:1006700000AF0446084611461A462346FB7103465E
:10068000BB710B467B7113463B71FB79022B00F06B
:10069000A480022B00F3EF80002B02D0012B4ED060
:1006A000E9E0BB79072B23D8754B1B68BA79920018
:1006B0000F2101FA02F2D2431146714A0B40136036
:1006C0006F4B1B687979BA79920001FA02F21146F0
:1006D0006B4A0B4313606A4B1B683979BA799200F5
:1006E000023201FA02F21146654A0B431360C2E07E
:1006F000BB79083BBB71624B5B68BA7992000F21F2
:1007000001FA02F2D24311465D4A0B4053605C4B42
:100710005B687979BA79920001FA02F21146584A77
:100720000B435360564B5B683979BA7992000232B9
:1007300001FA02F21146524A0B4353609BE0BB7927
:10074000072B23D84F4B1B68BA7992000F2101FA6F
:1007500002F2D24311464B4A0B401360494B1B68CF
:100760007979BA79920001FA02F21146454A0B43AF
:100770001360444B1B683979BA799200023201FA4E
:1007800002F211463F4A0B43136074E0BB79083B09
:10079000BB713C4B5B68BA7992000F2101FA02F2FF
:1007A000D2431146374A0B405360364B5B68797928
:1007B000BA79920001FA02F21146324A0B435360B1
:1007C000304B5B683979BA799200023201FA02F251
:1007D00011462C4A0B4353604DE0BB79072B23D8BD
:1007E000294B1B68BA7992000F2101FA02F2D24319
:1007F0001146254A0B401360234B1B687979BA795F
:10080000920001FA02F211461F4A0B4313601E4B7D
:100810001B683979BA799200023201FA02F2114664
:10082000194A0B43136025E0BB79083BBB71164B9B
:100830005B68BA7992000F2101FA02F2D2431146A5
:10084000114A0B405360104B5B687979BA7992007A
:1008500001FA02F211460C4A0B4353600A4B5B68E3
:100860003979BA799200023201FA02F21146064A47
:100870000B43536000BF00BF0837BD4690BC7047B4
:1008800000080140000C01400010014080B483B01A
:1008900000AF0346FB710B46BB7113467B71FB79BE
:1008A000022B40D0022B60DC002B02D0012B1DD08C
:1008B0005BE07B79002B0BD12E4BDB68BA790121F1
:1008C00001FA02F2D24311462A4A0B40D36047E0B4
:1008D0007B79012B44D1274BDB68BA79012101FADE
:1008E00002F21146234A0B43D36039E07B79002B97
:1008F0000BD1214BDB68BA79012101FA02F2D24314
:1009000011461D4A0B40D3602CE07B79012B29D185
:10091000194BDB68BA79012101FA02F21146164A35
:100920000B43D3601EE07B79002B0BD1134BDB68AC
:10093000BA79012101FA02F2D24311460F4A0B4063
:10094000D36011E07B79012B0ED10C4BDB68BA79B7
:10095000012101FA02F21146084A0B43D36003E079
:1009600000BF02E000BF00E000BF00BF0C37BD4683
:1009700080BC704700080140000C0140001001409D
:1009800080B483B000AF03460A46FB711346BB71C7
:10099000FB79022B1CD0022B25DC002B02D0012B73
:1009A0000BD020E0124BDB68BA79012101FA02F288
:1009B00011460F4A4B40D36015E00E4BDB68BA7905
:1009C000012101FA02F211460A4A4B40D3600AE0C3
:1009D000094BDB68BA79012101FA02F21146064A95
:1009E0004B40D36000BF00BF0C37BD4680BC704792
:1009F00000080140000C01400010014080B400AF2D
:100A00001E4B1B681D4A43F00103136000BF1B4BC4
:100A10001B685B08002BFAD0184B1B68174A43F47D
:100A200000231360154B5B68144A43F080735360D6
:100A3000124B124A5B685360104B104A5B6853605C
:100A40000E4B0E4A5B6853600C4B0C4A5B6853605C
:100A50000A4B0A4A5B685360084B084A5B6853605C
:100A600000BF064B5B689B0803F00303002BF8D123
:100A700000BF00BFBD4680BC704700BF00100240F1
:100A800080B483B000AF03460A46FB711346BB71C6
:100A9000FB79022B1CD0022B25DC002B02D0012B72
:100AA0000BD020E0124B5B69BA79012101FA02F206
:100AB00011460F4A0B43536115E00D4BDB69BA79C0
:100AC000012101FA02F21146094A0B43D3610AE0FF
:100AD000074B9B69BA79012101FA02F21146044AD7
:100AE0000B43936100BF00BF0C37BD4680BC70470D
:100AF0000010024080B400AF064B064A1B6813602A
:100B0000044B1B68034A43F00203136000BFBD4659
:100B100080BC704710E000E080B586B000AF786020
:100B200039601E4B1B681D4A23F0010313601C4BE8
:100B300001221A701B4B7B6100BF7869FFF7CEFB67
:100B4000034619461848FFF7D5FC03463B61786811
:100B5000FFF7C4FB034639691846FFF7CBFC034691
:100B60001846FFF763FD0346FB600C4AFB685360C1
:100B70000A4B00229A60094B1B68084A43F00203A3
:100B80001360064B1B68054A43F001031360074AD4
:100B90003B68136000BF1837BD4680BD10E000E021
:100BA0002000002040420F0000007A441C0000207A
:100BB00080B500AF094B1B68002B0CD0074B1B689E
:100BC0009847074B1B78002B05D1064B1B68054A3D
:100BD00023F00103136000BF80BD00BF1C00002094
:100BE0002000002010E000E080B500AF00210020D0
:100BF000FFF7C6FE00BF80BD80B500AFFFF7FEFE69
:100C000002210220FFF73CFF0023012200210020E7
:100C1000FFF72CFD002200210020FFF737FEFFF731
:100C200069FF03494FF47A70FFF776FFFEE700BFD4
:100C3000E90B00080D488546AFF300800C480D49CC
:100C40000D4A002302E0D458C4500433C4188C4227
:100C5000F9D30A4A0A4C002301E013600432A2428D
:100C6000FBD300F011F8FFF7C7FFFEE700500020AC
:100C70000000002000000020F00C00080000002010
:100C800024000020FEE7000070B500260C4D0D4C3E
:100C9000641BA410A64209D100F01AF800260A4DE0
:100CA0000A4C641BA410A64205D170BD55F8043B44
:100CB00098470136EEE755F8043B98470136F2E7CE
:100CC000E80C0008E80C0008E80C0008EC0C000830
:100CD000F8B500BFF8BC08BC9E467047F8B500BF29
:080CE000F8BC08BC9E467047F9
:040CE80055010008AA
:040CEC0031010008CA
:0400000508000C35AE
:00000001FF
